{
  "contractName": "LandRegistry",
  "abi": [
    {
      "anonymous": false,
      "inputs": [
        {
          "indexed": false,
          "internalType": "uint256",
          "name": "_surveyNo",
          "type": "uint256"
        }
      ],
      "name": "OwnerRegistration",
      "type": "event"
    },
    {
      "anonymous": false,
      "inputs": [
        {
          "indexed": false,
          "internalType": "uint256",
          "name": "_surveyNo",
          "type": "uint256"
        }
      ],
      "name": "Registration",
      "type": "event"
    },
    {
      "constant": true,
      "inputs": [
        {
          "internalType": "uint256",
          "name": "",
          "type": "uint256"
        }
      ],
      "name": "Land_Mapping",
      "outputs": [
        {
          "internalType": "uint256",
          "name": "surveyNo",
          "type": "uint256"
        },
        {
          "internalType": "uint256",
          "name": "TotalArea",
          "type": "uint256"
        },
        {
          "internalType": "string",
          "name": "city",
          "type": "string"
        },
        {
          "internalType": "string",
          "name": "Revenue_Div",
          "type": "string"
        },
        {
          "internalType": "string",
          "name": "Mandal",
          "type": "string"
        },
        {
          "internalType": "string",
          "name": "District",
          "type": "string"
        },
        {
          "internalType": "string",
          "name": "state",
          "type": "string"
        }
      ],
      "payable": false,
      "stateMutability": "view",
      "type": "function"
    },
    {
      "constant": true,
      "inputs": [
        {
          "internalType": "uint256",
          "name": "",
          "type": "uint256"
        }
      ],
      "name": "OwnerCount",
      "outputs": [
        {
          "internalType": "uint256",
          "name": "",
          "type": "uint256"
        }
      ],
      "payable": false,
      "stateMutability": "view",
      "type": "function"
    },
    {
      "constant": true,
      "inputs": [
        {
          "internalType": "uint256",
          "name": "",
          "type": "uint256"
        },
        {
          "internalType": "uint256",
          "name": "",
          "type": "uint256"
        }
      ],
      "name": "Owner_Mapping",
      "outputs": [
        {
          "internalType": "string",
          "name": "Name",
          "type": "string"
        },
        {
          "internalType": "string",
          "name": "Father_Name",
          "type": "string"
        },
        {
          "internalType": "uint256",
          "name": "Aadhar_Number",
          "type": "uint256"
        },
        {
          "internalType": "string",
          "name": "Pan_Number",
          "type": "string"
        },
        {
          "internalType": "uint256",
          "name": "Cost",
          "type": "uint256"
        },
        {
          "internalType": "string",
          "name": "Date",
          "type": "string"
        }
      ],
      "payable": false,
      "stateMutability": "view",
      "type": "function"
    },
    {
      "constant": true,
      "inputs": [
        {
          "internalType": "uint256",
          "name": "",
          "type": "uint256"
        }
      ],
      "name": "SurveyNo_Mapping",
      "outputs": [
        {
          "internalType": "bool",
          "name": "",
          "type": "bool"
        }
      ],
      "payable": false,
      "stateMutability": "view",
      "type": "function"
    },
    {
      "constant": true,
      "inputs": [
        {
          "internalType": "uint256",
          "name": "",
          "type": "uint256"
        }
      ],
      "name": "SurveyOwner_Mapping",
      "outputs": [
        {
          "internalType": "address",
          "name": "",
          "type": "address"
        }
      ],
      "payable": false,
      "stateMutability": "view",
      "type": "function"
    },
    {
      "constant": true,
      "inputs": [
        {
          "internalType": "address",
          "name": "",
          "type": "address"
        }
      ],
      "name": "User_Mapping",
      "outputs": [
        {
          "internalType": "bool",
          "name": "",
          "type": "bool"
        }
      ],
      "payable": false,
      "stateMutability": "view",
      "type": "function"
    },
    {
      "constant": true,
      "inputs": [
        {
          "internalType": "uint256",
          "name": "_SurveyNo",
          "type": "uint256"
        }
      ],
      "name": "getLandDetails",
      "outputs": [
        {
          "internalType": "uint256",
          "name": "",
          "type": "uint256"
        },
        {
          "internalType": "uint256",
          "name": "",
          "type": "uint256"
        },
        {
          "internalType": "string",
          "name": "",
          "type": "string"
        },
        {
          "internalType": "string",
          "name": "",
          "type": "string"
        },
        {
          "internalType": "string",
          "name": "",
          "type": "string"
        },
        {
          "internalType": "string",
          "name": "",
          "type": "string"
        },
        {
          "internalType": "string",
          "name": "",
          "type": "string"
        }
      ],
      "payable": false,
      "stateMutability": "view",
      "type": "function"
    },
    {
      "constant": true,
      "inputs": [
        {
          "internalType": "uint256",
          "name": "_SurveyNo",
          "type": "uint256"
        },
        {
          "internalType": "uint256",
          "name": "_count",
          "type": "uint256"
        }
      ],
      "name": "getOwnerDetails",
      "outputs": [
        {
          "internalType": "string",
          "name": "",
          "type": "string"
        },
        {
          "internalType": "string",
          "name": "",
          "type": "string"
        },
        {
          "internalType": "uint256",
          "name": "",
          "type": "uint256"
        },
        {
          "internalType": "string",
          "name": "",
          "type": "string"
        },
        {
          "internalType": "uint256",
          "name": "",
          "type": "uint256"
        },
        {
          "internalType": "string",
          "name": "",
          "type": "string"
        }
      ],
      "payable": false,
      "stateMutability": "view",
      "type": "function"
    },
    {
      "constant": true,
      "inputs": [],
      "name": "getPresentAddress",
      "outputs": [
        {
          "internalType": "address",
          "name": "",
          "type": "address"
        }
      ],
      "payable": false,
      "stateMutability": "view",
      "type": "function"
    },
    {
      "constant": true,
      "inputs": [
        {
          "internalType": "uint256",
          "name": "_SurveyNo",
          "type": "uint256"
        }
      ],
      "name": "getOwnerAddress",
      "outputs": [
        {
          "internalType": "address",
          "name": "",
          "type": "address"
        }
      ],
      "payable": false,
      "stateMutability": "view",
      "type": "function"
    },
    {
      "constant": true,
      "inputs": [],
      "name": "CheckUser",
      "outputs": [
        {
          "internalType": "bool",
          "name": "",
          "type": "bool"
        }
      ],
      "payable": false,
      "stateMutability": "view",
      "type": "function"
    },
    {
      "constant": true,
      "inputs": [
        {
          "internalType": "uint256",
          "name": "_SurveyNo",
          "type": "uint256"
        }
      ],
      "name": "CheckSurveyNumber",
      "outputs": [
        {
          "internalType": "bool",
          "name": "",
          "type": "bool"
        }
      ],
      "payable": false,
      "stateMutability": "view",
      "type": "function"
    },
    {
      "constant": false,
      "inputs": [
        {
          "internalType": "uint256",
          "name": "_SurveyNo",
          "type": "uint256"
        },
        {
          "internalType": "uint256",
          "name": "_TotalArea",
          "type": "uint256"
        },
        {
          "internalType": "string",
          "name": "_City",
          "type": "string"
        },
        {
          "internalType": "string",
          "name": "_RevenueDist",
          "type": "string"
        },
        {
          "internalType": "string",
          "name": "_Mandal",
          "type": "string"
        },
        {
          "internalType": "string",
          "name": "_District",
          "type": "string"
        },
        {
          "internalType": "string",
          "name": "_State",
          "type": "string"
        },
        {
          "internalType": "string",
          "name": "_Name",
          "type": "string"
        },
        {
          "internalType": "string",
          "name": "_FName",
          "type": "string"
        },
        {
          "internalType": "uint256",
          "name": "_Aadhar",
          "type": "uint256"
        },
        {
          "internalType": "string",
          "name": "_PAN",
          "type": "string"
        },
        {
          "internalType": "uint256",
          "name": "_Cost",
          "type": "uint256"
        },
        {
          "internalType": "string",
          "name": "_Date",
          "type": "string"
        }
      ],
      "name": "RegisterLand",
      "outputs": [],
      "payable": false,
      "stateMutability": "nonpayable",
      "type": "function"
    },
    {
      "constant": false,
      "inputs": [
        {
          "internalType": "uint256",
          "name": "_SurveyNo",
          "type": "uint256"
        },
        {
          "internalType": "string",
          "name": "_Name",
          "type": "string"
        },
        {
          "internalType": "string",
          "name": "_FName",
          "type": "string"
        },
        {
          "internalType": "uint256",
          "name": "_Aadhar",
          "type": "uint256"
        },
        {
          "internalType": "string",
          "name": "_PAN",
          "type": "string"
        },
        {
          "internalType": "uint256",
          "name": "_Cost",
          "type": "uint256"
        },
        {
          "internalType": "string",
          "name": "_Date",
          "type": "string"
        },
        {
          "internalType": "address",
          "name": "_address",
          "type": "address"
        }
      ],
      "name": "RegisterOwner",
      "outputs": [],
      "payable": false,
      "stateMutability": "nonpayable",
      "type": "function"
    },
    {
      "constant": true,
      "inputs": [
        {
          "internalType": "uint256",
          "name": "_SurveyNo",
          "type": "uint256"
        }
      ],
      "name": "getOwnerCount",
      "outputs": [
        {
          "internalType": "int256",
          "name": "",
          "type": "int256"
        }
      ],
      "payable": false,
      "stateMutability": "view",
      "type": "function"
    }
  ],
  "bytecode": "0x608060405234801561001057600080fd5b50612c9a806100206000396000f3fe608060405234801561001057600080fd5b50600436106100f55760003560e01c80638b047fd511610097578063bfa8a94911610066578063bfa8a94914610a67578063dd55095814611003578063f3da328a14611071578063fe0cb7dc14611274576100f5565b80638b047fd5146106d2578063a50667a414610718578063ac8b42ed1461075e578063b94620f214610a1d576100f5565b806370c15651116100d357806370c15651146103fd578063763d92921461060057806383757a091461066e5780638647f1dc146106b0576100f5565b8063126669ad146100fa57806313f66c9a146101565780634fa62e9b14610198575b600080fd5b61013c6004803603602081101561011057600080fd5b81019080803573ffffffffffffffffffffffffffffffffffffffff1690602001909291905050506114d9565b604051808215151515815260200191505060405180910390f35b6101826004803603602081101561016c57600080fd5b81019080803590602001909291905050506114f9565b6040518082815260200191505060405180910390f35b6101c4600480360360208110156101ae57600080fd5b8101908080359060200190929190505050611600565b60405180888152602001878152602001806020018060200180602001806020018060200186810386528b818151815260200191508051906020019080838360005b83811015610220578082015181840152602081019050610205565b50505050905090810190601f16801561024d5780820380516001836020036101000a031916815260200191505b5086810385528a818151815260200191508051906020019080838360005b8381101561028657808201518184015260208101905061026b565b50505050905090810190601f1680156102b35780820380516001836020036101000a031916815260200191505b50868103845289818151815260200191508051906020019080838360005b838110156102ec5780820151818401526020810190506102d1565b50505050905090810190601f1680156103195780820380516001836020036101000a031916815260200191505b50868103835288818151815260200191508051906020019080838360005b83811015610352578082015181840152602081019050610337565b50505050905090810190601f16801561037f5780820380516001836020036101000a031916815260200191505b50868103825287818151815260200191508051906020019080838360005b838110156103b857808201518184015260208101905061039d565b50505050905090810190601f1680156103e55780820380516001836020036101000a031916815260200191505b509c5050505050505050505050505060405180910390f35b6104336004803603604081101561041357600080fd5b81019080803590602001909291908035906020019092919050505061193a565b604051808060200180602001878152602001806020018681526020018060200185810385528b818151815260200191508051906020019080838360005b8381101561048b578082015181840152602081019050610470565b50505050905090810190601f1680156104b85780820380516001836020036101000a031916815260200191505b5085810384528a818151815260200191508051906020019080838360005b838110156104f15780820151818401526020810190506104d6565b50505050905090810190601f16801561051e5780820380516001836020036101000a031916815260200191505b50858103835288818151815260200191508051906020019080838360005b8381101561055757808201518184015260208101905061053c565b50505050905090810190601f1680156105845780820380516001836020036101000a031916815260200191505b50858103825286818151815260200191508051906020019080838360005b838110156105bd5780820151818401526020810190506105a2565b50505050905090810190601f1680156105ea5780820380516001836020036101000a031916815260200191505b509a505050505050505050505060405180910390f35b61062c6004803603602081101561061657600080fd5b8101908080359060200190929190505050611dc0565b604051808273ffffffffffffffffffffffffffffffffffffffff1673ffffffffffffffffffffffffffffffffffffffff16815260200191505060405180910390f35b61069a6004803603602081101561068457600080fd5b8101908080359060200190929190505050611df3565b6040518082815260200191505060405180910390f35b6106b8611e0b565b604051808215151515815260200191505060405180910390f35b6106fe600480360360208110156106e857600080fd5b8101908080359060200190929190505050611e5e565b604051808215151515815260200191505060405180910390f35b6107446004803603602081101561072e57600080fd5b8101908080359060200190929190505050611e88565b604051808215151515815260200191505060405180910390f35b610a1b600480360361010081101561077557600080fd5b81019080803590602001909291908035906020019064010000000081111561079c57600080fd5b8201836020820111156107ae57600080fd5b803590602001918460018302840111640100000000831117156107d057600080fd5b91908080601f016020809104026020016040519081016040528093929190818152602001838380828437600081840152601f19601f8201169050808301925050505050505091929192908035906020019064010000000081111561083357600080fd5b82018360208201111561084557600080fd5b8035906020019184600183028401116401000000008311171561086757600080fd5b91908080601f016020809104026020016040519081016040528093929190818152602001838380828437600081840152601f19601f82011690508083019250505050505050919291929080359060200190929190803590602001906401000000008111156108d457600080fd5b8201836020820111156108e657600080fd5b8035906020019184600183028401116401000000008311171561090857600080fd5b91908080601f016020809104026020016040519081016040528093929190818152602001838380828437600081840152601f19601f820116905080830192505050505050509192919290803590602001909291908035906020019064010000000081111561097557600080fd5b82018360208201111561098757600080fd5b803590602001918460018302840111640100000000831117156109a957600080fd5b91908080601f016020809104026020016040519081016040528093929190818152602001838380828437600081840152601f19601f820116905080830192505050505050509192919290803573ffffffffffffffffffffffffffffffffffffffff169060200190929190505050611ea8565b005b610a2561213e565b604051808273ffffffffffffffffffffffffffffffffffffffff1673ffffffffffffffffffffffffffffffffffffffff16815260200191505060405180910390f35b61100160048036036101a0811015610a7e57600080fd5b81019080803590602001909291908035906020019092919080359060200190640100000000811115610aaf57600080fd5b820183602082011115610ac157600080fd5b80359060200191846001830284011164010000000083111715610ae357600080fd5b91908080601f016020809104026020016040519081016040528093929190818152602001838380828437600081840152601f19601f82011690508083019250505050505050919291929080359060200190640100000000811115610b4657600080fd5b820183602082011115610b5857600080fd5b80359060200191846001830284011164010000000083111715610b7a57600080fd5b91908080601f016020809104026020016040519081016040528093929190818152602001838380828437600081840152601f19601f82011690508083019250505050505050919291929080359060200190640100000000811115610bdd57600080fd5b820183602082011115610bef57600080fd5b80359060200191846001830284011164010000000083111715610c1157600080fd5b91908080601f016020809104026020016040519081016040528093929190818152602001838380828437600081840152601f19601f82011690508083019250505050505050919291929080359060200190640100000000811115610c7457600080fd5b820183602082011115610c8657600080fd5b80359060200191846001830284011164010000000083111715610ca857600080fd5b91908080601f016020809104026020016040519081016040528093929190818152602001838380828437600081840152601f19601f82011690508083019250505050505050919291929080359060200190640100000000811115610d0b57600080fd5b820183602082011115610d1d57600080fd5b80359060200191846001830284011164010000000083111715610d3f57600080fd5b91908080601f016020809104026020016040519081016040528093929190818152602001838380828437600081840152601f19601f82011690508083019250505050505050919291929080359060200190640100000000811115610da257600080fd5b820183602082011115610db457600080fd5b80359060200191846001830284011164010000000083111715610dd657600080fd5b91908080601f016020809104026020016040519081016040528093929190818152602001838380828437600081840152601f19601f82011690508083019250505050505050919291929080359060200190640100000000811115610e3957600080fd5b820183602082011115610e4b57600080fd5b80359060200191846001830284011164010000000083111715610e6d57600080fd5b91908080601f016020809104026020016040519081016040528093929190818152602001838380828437600081840152601f19601f8201169050808301925050505050505091929192908035906020019092919080359060200190640100000000811115610eda57600080fd5b820183602082011115610eec57600080fd5b80359060200191846001830284011164010000000083111715610f0e57600080fd5b91908080601f016020809104026020016040519081016040528093929190818152602001838380828437600081840152601f19601f8201169050808301925050505050505091929192908035906020019092919080359060200190640100000000811115610f7b57600080fd5b820183602082011115610f8d57600080fd5b80359060200191846001830284011164010000000083111715610faf57600080fd5b91908080601f016020809104026020016040519081016040528093929190818152602001838380828437600081840152601f19601f820116905080830192505050505050509192919290505050612146565b005b61102f6004803603602081101561101957600080fd5b810190808035906020019092919050505061232b565b604051808273ffffffffffffffffffffffffffffffffffffffff1673ffffffffffffffffffffffffffffffffffffffff16815260200191505060405180910390f35b6110a76004803603604081101561108757600080fd5b81019080803590602001909291908035906020019092919050505061243c565b604051808060200180602001878152602001806020018681526020018060200185810385528b818151815260200191508051906020019080838360005b838110156110ff5780820151818401526020810190506110e4565b50505050905090810190601f16801561112c5780820380516001836020036101000a031916815260200191505b5085810384528a818151815260200191508051906020019080838360005b8381101561116557808201518184015260208101905061114a565b50505050905090810190601f1680156111925780820380516001836020036101000a031916815260200191505b50858103835288818151815260200191508051906020019080838360005b838110156111cb5780820151818401526020810190506111b0565b50505050905090810190601f1680156111f85780820380516001836020036101000a031916815260200191505b50858103825286818151815260200191508051906020019080838360005b83811015611231578082015181840152602081019050611216565b50505050905090810190601f16801561125e5780820380516001836020036101000a031916815260200191505b509a505050505050505050505060405180910390f35b6112a06004803603602081101561128a57600080fd5b81019080803590602001909291905050506126f2565b60405180888152602001878152602001806020018060200180602001806020018060200186810386528b818151815260200191508051906020019080838360005b838110156112fc5780820151818401526020810190506112e1565b50505050905090810190601f1680156113295780820380516001836020036101000a031916815260200191505b5086810385528a818151815260200191508051906020019080838360005b83811015611362578082015181840152602081019050611347565b50505050905090810190601f16801561138f5780820380516001836020036101000a031916815260200191505b50868103845289818151815260200191508051906020019080838360005b838110156113c85780820151818401526020810190506113ad565b50505050905090810190601f1680156113f55780820380516001836020036101000a031916815260200191505b50868103835288818151815260200191508051906020019080838360005b8381101561142e578082015181840152602081019050611413565b50505050905090810190601f16801561145b5780820380516001836020036101000a031916815260200191505b50868103825287818151815260200191508051906020019080838360005b83811015611494578082015181840152602081019050611479565b50505050905090810190601f1680156114c15780820380516001836020036101000a031916815260200191505b509c5050505050505050505050505060405180910390f35b60006020528060005260406000206000915054906101000a900460ff1681565b60003373ffffffffffffffffffffffffffffffffffffffff166002600084815260200190815260200160002060009054906101000a900473ffffffffffffffffffffffffffffffffffffffff1673ffffffffffffffffffffffffffffffffffffffff161480156115b157506000803373ffffffffffffffffffffffffffffffffffffffff1673ffffffffffffffffffffffffffffffffffffffff16815260200190815260200160002060009054906101000a900460ff165b156115d157600560008381526020019081526020016000205490506115fb565b60007fffffffffffffffffffffffffffffffffffffffffffffffffffffffffffffffff9050809150505b919050565b6003602052806000526040600020600091509050806000015490806001015490806002018054600181600116156101000203166002900480601f0160208091040260200160405190810160405280929190818152602001828054600181600116156101000203166002900480156116b85780601f1061168d576101008083540402835291602001916116b8565b820191906000526020600020905b81548152906001019060200180831161169b57829003601f168201915b505050505090806003018054600181600116156101000203166002900480601f0160208091040260200160405190810160405280929190818152602001828054600181600116156101000203166002900480156117565780601f1061172b57610100808354040283529160200191611756565b820191906000526020600020905b81548152906001019060200180831161173957829003601f168201915b505050505090806004018054600181600116156101000203166002900480601f0160208091040260200160405190810160405280929190818152602001828054600181600116156101000203166002900480156117f45780601f106117c9576101008083540402835291602001916117f4565b820191906000526020600020905b8154815290600101906020018083116117d757829003601f168201915b505050505090806005018054600181600116156101000203166002900480601f0160208091040260200160405190810160405280929190818152602001828054600181600116156101000203166002900480156118925780601f1061186757610100808354040283529160200191611892565b820191906000526020600020905b81548152906001019060200180831161187557829003601f168201915b505050505090806006018054600181600116156101000203166002900480601f0160208091040260200160405190810160405280929190818152602001828054600181600116156101000203166002900480156119305780601f1061190557610100808354040283529160200191611930565b820191906000526020600020905b81548152906001019060200180831161191357829003601f168201915b5050505050905087565b60608060006060600060603373ffffffffffffffffffffffffffffffffffffffff16600260008a815260200190815260200160002060009054906101000a900473ffffffffffffffffffffffffffffffffffffffff1673ffffffffffffffffffffffffffffffffffffffff1614611a19576040517f08c379a00000000000000000000000000000000000000000000000000000000081526004018080602001828103825260138152602001807f55736572206e6f7420417574686f72697a65640000000000000000000000000081525060200191505060405180910390fd5b6005600089815260200190815260200160002054871115611aa2576040517f08c379a00000000000000000000000000000000000000000000000000000000081526004018080602001828103825260148152602001807f4e6f204f776e657220526567697374657265642100000000000000000000000081525060200191505060405180910390fd5b611aaa612b25565b600460008a81526020019081526020016000208881548110611ac857fe5b90600052602060002090600602016040518060c0016040529081600082018054600181600116156101000203166002900480601f016020809104026020016040519081016040528092919081815260200182805460018160011615610100020316600290048015611b7a5780601f10611b4f57610100808354040283529160200191611b7a565b820191906000526020600020905b815481529060010190602001808311611b5d57829003601f168201915b50505050508152602001600182018054600181600116156101000203166002900480601f016020809104026020016040519081016040528092919081815260200182805460018160011615610100020316600290048015611c1c5780601f10611bf157610100808354040283529160200191611c1c565b820191906000526020600020905b815481529060010190602001808311611bff57829003601f168201915b5050505050815260200160028201548152602001600382018054600181600116156101000203166002900480601f016020809104026020016040519081016040528092919081815260200182805460018160011615610100020316600290048015611cc85780601f10611c9d57610100808354040283529160200191611cc8565b820191906000526020600020905b815481529060010190602001808311611cab57829003601f168201915b5050505050815260200160048201548152602001600582018054600181600116156101000203166002900480601f016020809104026020016040519081016040528092919081815260200182805460018160011615610100020316600290048015611d745780601f10611d4957610100808354040283529160200191611d74565b820191906000526020600020905b815481529060010190602001808311611d5757829003601f168201915b5050505050815250509050806000015181602001518260400151836060015184608001518560a00151859550849450829250809050965096509650965096509650509295509295509295565b60026020528060005260406000206000915054906101000a900473ffffffffffffffffffffffffffffffffffffffff1681565b60056020528060005260406000206000915090505481565b60008060003373ffffffffffffffffffffffffffffffffffffffff1673ffffffffffffffffffffffffffffffffffffffff16815260200190815260200160002060009054906101000a900460ff16905090565b60006001600083815260200190815260200160002060009054906101000a900460ff169050919050565b60016020528060005260406000206000915054906101000a900460ff1681565b6001600089815260200190815260200160002060009054906101000a900460ff16611f3b576040517f08c379a000000000000000000000000000000000000000000000000000000000815260040180806020018281038252601f8152602001807f537572766579206e756d626572206973206e6f7420726567697374657265640081525060200191505060405180910390fd5b80600260008a815260200190815260200160002060006101000a81548173ffffffffffffffffffffffffffffffffffffffff021916908373ffffffffffffffffffffffffffffffffffffffff160217905550600460008981526020019081526020016000206040518060c0016040528089815260200188815260200187815260200186815260200185815260200184815250908060018154018082558091505090600182039060005260206000209060060201600090919290919091506000820151816000019080519060200190612014929190612b5b565b506020820151816001019080519060200190612031929190612b5b565b50604082015181600201556060820151816003019080519060200190612058929190612b5b565b506080820151816004015560a082015181600501908051906020019061207f929190612b5b565b50505050600560008981526020019081526020016000206000815480929190600101919050555060016000808373ffffffffffffffffffffffffffffffffffffffff1673ffffffffffffffffffffffffffffffffffffffff16815260200190815260200160002060006101000a81548160ff0219169083151502179055507fe980bc5fd411d6bf3fe5b165aa9df5cc3f1829dce2fd042df5ea529c3a4b3607886040518082815260200191505060405180910390a15050505050505050565b600033905090565b600160008e815260200190815260200160002060009054906101000a900460ff16156121da576040517f08c379a00000000000000000000000000000000000000000000000000000000081526004018080602001828103825260208152602001807f537572766579206e756d62657220616c7265616479207265676973746572656481525060200191505060405180910390fd5b60018060008f815260200190815260200160002060006101000a81548160ff0219169083151502179055506040518060e001604052808e81526020018d81526020018c81526020018b81526020018a815260200189815260200188815250600360008f81526020019081526020016000206000820151816000015560208201518160010155604082015181600201908051906020019061227b929190612b5b565b506060820151816003019080519060200190612298929190612b5b565b5060808201518160040190805190602001906122b5929190612b5b565b5060a08201518160050190805190602001906122d2929190612b5b565b5060c08201518160060190805190602001906122ef929190612b5b565b509050506000600560008f81526020019081526020016000208190555061231c8d87878787878733611ea8565b50505050505050505050505050565b60003373ffffffffffffffffffffffffffffffffffffffff166002600084815260200190815260200160002060009054906101000a900473ffffffffffffffffffffffffffffffffffffffff1673ffffffffffffffffffffffffffffffffffffffff1614612401576040517f08c379a00000000000000000000000000000000000000000000000000000000081526004018080602001828103825260128152602001807f4e6f20726567697374657265642075736572000000000000000000000000000081525060200191505060405180910390fd5b6002600083815260200190815260200160002060009054906101000a900473ffffffffffffffffffffffffffffffffffffffff169050919050565b6004602052816000526040600020818154811061245557fe5b906000526020600020906006020160009150915050806000018054600181600116156101000203166002900480601f0160208091040260200160405190810160405280929190818152602001828054600181600116156101000203166002900480156125025780601f106124d757610100808354040283529160200191612502565b820191906000526020600020905b8154815290600101906020018083116124e557829003601f168201915b505050505090806001018054600181600116156101000203166002900480601f0160208091040260200160405190810160405280929190818152602001828054600181600116156101000203166002900480156125a05780601f10612575576101008083540402835291602001916125a0565b820191906000526020600020905b81548152906001019060200180831161258357829003601f168201915b505050505090806002015490806003018054600181600116156101000203166002900480601f0160208091040260200160405190810160405280929190818152602001828054600181600116156101000203166002900480156126445780601f1061261957610100808354040283529160200191612644565b820191906000526020600020905b81548152906001019060200180831161262757829003601f168201915b505050505090806004015490806005018054600181600116156101000203166002900480601f0160208091040260200160405190810160405280929190818152602001828054600181600116156101000203166002900480156126e85780601f106126bd576101008083540402835291602001916126e8565b820191906000526020600020905b8154815290600101906020018083116126cb57829003601f168201915b5050505050905086565b60008060608060608060606001600089815260200190815260200160002060009054906101000a900460ff16612773576040517f08c379a0000000000000000000000000000000000000000000000000000000008152600401808060200182810382526028815260200180612c3e6028913960400191505060405180910390fd5b61277b612bdb565b600360008a81526020019081526020016000206040518060e00160405290816000820154815260200160018201548152602001600282018054600181600116156101000203166002900480601f0160208091040260200160405190810160405280929190818152602001828054600181600116156101000203166002900480156128465780601f1061281b57610100808354040283529160200191612846565b820191906000526020600020905b81548152906001019060200180831161282957829003601f168201915b50505050508152602001600382018054600181600116156101000203166002900480601f0160208091040260200160405190810160405280929190818152602001828054600181600116156101000203166002900480156128e85780601f106128bd576101008083540402835291602001916128e8565b820191906000526020600020905b8154815290600101906020018083116128cb57829003601f168201915b50505050508152602001600482018054600181600116156101000203166002900480601f01602080910402602001604051908101604052809291908181526020018280546001816001161561010002031660029004801561298a5780601f1061295f5761010080835404028352916020019161298a565b820191906000526020600020905b81548152906001019060200180831161296d57829003601f168201915b50505050508152602001600582018054600181600116156101000203166002900480601f016020809104026020016040519081016040528092919081815260200182805460018160011615610100020316600290048015612a2c5780601f10612a0157610100808354040283529160200191612a2c565b820191906000526020600020905b815481529060010190602001808311612a0f57829003601f168201915b50505050508152602001600682018054600181600116156101000203166002900480601f016020809104026020016040519081016040528092919081815260200182805460018160011615610100020316600290048015612ace5780601f10612aa357610100808354040283529160200191612ace565b820191906000526020600020905b815481529060010190602001808311612ab157829003601f168201915b5050505050815250509050806000015181602001518260400151836060015184608001518560a001518660c00151849450839350829250819150809050975097509750975097509750975050919395979092949650565b6040518060c001604052806060815260200160608152602001600081526020016060815260200160008152602001606081525090565b828054600181600116156101000203166002900490600052602060002090601f016020900481019282601f10612b9c57805160ff1916838001178555612bca565b82800160010185558215612bca579182015b82811115612bc9578251825591602001919060010190612bae565b5b509050612bd79190612c18565b5090565b6040518060e00160405280600081526020016000815260200160608152602001606081526020016060815260200160608152602001606081525090565b612c3a91905b80821115612c36576000816000905550600101612c1e565b5090565b9056fe4e6f204c616e64207265676973746572656420746f207468697320737572766579206e756d626572a265627a7a723158205384a811520135466a6cbbb7927f5cd5a24520c36844f19f957c4b48f001839e64736f6c63430005100032",
  "source": "pragma solidity >=0.4.21;\n\ncontract LandRegistry{\n\n    struct Land{\n        uint surveyNo;\n        uint TotalArea;\n        string city;\n        string Revenue_Div;\n        string Mandal;\n        string District;\n        string state;\n    }\n\n    struct Owner{\n        string Name;\n        string Father_Name;\n        uint Aadhar_Number;\n        string Pan_Number;\n        uint Cost;\n        string Date;\n    \n    }\n\n    mapping(address => bool) public User_Mapping;\n    mapping(uint => bool) public SurveyNo_Mapping;\n    mapping(uint => address) public SurveyOwner_Mapping;\n    //mapping(address => uint) public OwnerSurvey_Mapping;\n    mapping(uint => Land) public Land_Mapping;\n    mapping(uint => Owner[]) public Owner_Mapping;\n    mapping(uint => uint) public OwnerCount;  \n\n    /*constructor() public{\n        RegisterLand(123,100,\"vij\", \"kri\", \"vij\",\"kri\", \"AP\");\n        RegisterOwner(123,\"Nuru\",\"Siraj\",291964219975,\"A12345678\",1000,28,1,2019);\n    }*/\n\n    event OwnerRegistration(uint _surveyNo);\n    event Registration(uint _surveyNo);\n    //event LandRegistration(uint _surveyNo);\n    \n    function getLandDetails(uint _SurveyNo) public view returns (uint,uint,string memory,string memory,string memory,string memory,string memory) {\n        require(SurveyNo_Mapping[_SurveyNo], \"No Land registered to this survey number\");\n        Land memory land = Land_Mapping[_SurveyNo];\n        return (land.surveyNo,land.TotalArea,land.city,land.Revenue_Div,land.Mandal,land.District,land.state);\n    }\n    \n    function getOwnerDetails(uint _SurveyNo, uint _count) public view returns (string memory,string memory,uint ,string memory,uint, string memory) {\n        require(SurveyOwner_Mapping[_SurveyNo] == msg.sender, \"User not Authorized\");\n        require(_count <= OwnerCount[_SurveyNo], \"No Owner Registered!\");\n        Owner memory Details = Owner_Mapping[_SurveyNo][_count];\n        return (Details.Name, Details.Father_Name, Details.Aadhar_Number, Details.Pan_Number, Details.Cost,Details.Date);\n    }\n    \n    function getPresentAddress() public view returns (address) {\n        return msg.sender;\n    }\n    \n    function getOwnerAddress(uint _SurveyNo) public view returns (address) {\n        require(SurveyOwner_Mapping[_SurveyNo] == msg.sender, \"No registered user\");\n        return SurveyOwner_Mapping[_SurveyNo];\n    }\n    \n    function CheckUser() public view returns (bool) {\n        return User_Mapping[msg.sender];\n    }\n    \n    function CheckSurveyNumber(uint _SurveyNo) public view returns (bool){\n        return SurveyNo_Mapping[_SurveyNo];\n    }\n\n    function RegisterLand(uint _SurveyNo, uint _TotalArea, string memory _City, string memory _RevenueDist, string memory _Mandal, string memory _District, string memory _State,string memory _Name, string memory _FName, uint _Aadhar, string memory _PAN, uint _Cost, string memory _Date) public {  \n        require(!SurveyNo_Mapping[_SurveyNo], \"Survey number already registered\");\n        \n        SurveyNo_Mapping[_SurveyNo] = true;\n        //OwnerSurvey_Mapping[msg.sender] = _SurveyNo;\n        Land_Mapping[_SurveyNo] = Land(_SurveyNo,_TotalArea,_City,_RevenueDist,_Mandal,_District,_State);\n        OwnerCount[_SurveyNo] = 0;\n\n        RegisterOwner(_SurveyNo,_Name,_FName,_Aadhar,_PAN,_Cost,_Date,msg.sender);\n    }\n    \n    function RegisterOwner(uint _SurveyNo, string memory _Name, string memory _FName, uint _Aadhar, string memory _PAN, uint _Cost, string memory _Date, address _address) public{\n        require(SurveyNo_Mapping[_SurveyNo], \"Survey number is not registered\");\n        \n        SurveyOwner_Mapping[_SurveyNo] = _address;\n        Owner_Mapping[_SurveyNo].push(Owner(_Name,_FName,_Aadhar,_PAN,_Cost,_Date));\n        //uint count = OwnerCount[_SurveyNo];\n        OwnerCount[_SurveyNo] ++;\n        User_Mapping[_address] = true;\n\n        emit OwnerRegistration(_SurveyNo);\n    }\n\n    function getOwnerCount(uint _SurveyNo) public view returns (int){\n        if(SurveyOwner_Mapping[_SurveyNo] == msg.sender && User_Mapping[msg.sender])\n            return int(OwnerCount[_SurveyNo]);\n        else{\n            int No = -1;\n            return (No);\n        }\n    }\n}\n",
  "sourcePath": "C:\\Users\\Haneef\\Project\\Blockchain-Land-Registration-System\\contracts\\LandRegistry.sol",
  "compiler": {
    "name": "solc",
    "version": "0.5.16+commit.9c3226ce.Emscripten.clang"
  },
  "schemaVersion": "3.4.6",
  "updatedAt": "2022-06-28T04:38:31.508Z",
  "networkType": "ethereum",
  "devdoc": {
    "methods": {}
  },
  "userdoc": {
    "methods": {}
  }
}